:020000040800F2
:100000000000022011760008DD2B0008DF2B00081D
:10001000E12B0008E32B0008E52B0008000000009E
:10002000000000000000000000000000E72B0008B6
:10003000E92B000800000000EB2B0008ED2B000866
:100040006176000861760008617600086176000834
:100050006176000861760008617600086176000824
:10006000F52B0008FF2B0008617600086176000878
:100070006176000861760008617600086176000804
:1000800061760008617600086176000861760008F4
:1000900061760008617600086176000861760008E4
:1000A00061760008617600086176000861760008D4
:1000B000092C000861760008617600086176000866
:1000C00061760008617600086176000861760008B4
:1000D00061760008617600086176000861760008A4
:1000E0006176000861760008617600086176000894
:1000F0006176000861760008192C00086176000816
:100100006176000861760008617600086176000873
:100110006176000861760008617600086176000863
:10012000292C000861760008392C00086176000847
:100130006176000861760008617600086176000843
:100140006176000861760008617600086176000833
:100150006176000861760008617600086176000823
:100160006176000861760008617600086176000813
:1001700061760008617600086176000800000000E2
:080180006176000861760008B9
:1001C00010B5054C237833B9044B13B10448AFF391
:1001D00000800123237010BD380A002000000000B9
:1001E00064D5000808B5034B1BB103490348AFF3BE
:1001F000008008BD000000003C0A002064D5000813
:1002000081F0004102E000BF83F0004330B54FEAC7
:1002100041044FEA430594EA050F08BF90EA020F34
:100220001FBF54EA000C55EA020C7FEA645C7FEAC7
:10023000655C00F0E2804FEA5454D4EB5555B8BFEA
:100240006D420CDD2C4480EA020281EA030382EA5B
:10025000000083EA010180EA020281EA0303362DED
:1002600088BF30BD11F0004F4FEA01314FF4801CC0
:100270004CEA113102D0404261EB410113F0004FD2
:100280004FEA03334CEA133302D0524263EB430389
:1002900094EA050F00F0A780A4F10104D5F1200E27
:1002A0000DDB02FA0EFC22FA05F2801841F1000182
:1002B00003FA0EF2801843FA05F359410EE0A5F156
:1002C00020050EF1200E012A03FA0EFC28BF4CF087
:1002D000020C43FA05F3C01851EBE37101F000453D
:1002E00007D54FF0000EDCF1000C7EEB00006EEB4A
:1002F0000101B1F5801F1BD3B1F5001F0CD34908D4
:100300005FEA30004FEA3C0C04F101044FEA44522A
:1003100012F5800F80F09A80BCF1004F08BF5FEAB1
:10032000500C50F1000041EB045141EA050130BD91
:100330005FEA4C0C404141EB0101013C28BFB1F5A3
:10034000801FE9D291F0000F04BF01460020B1FAEE
:1003500081F308BF2033A3F10B03B3F120020CDAC1
:100360000C3208DD02F1140CC2F10C0201FA0CF09F
:1003700021FA02F10CE002F11402D8BFC2F1200C04
:1003800001FA02F120FA0CFCDCBF41EA0C019040BA
:10039000E41AA2BF01EB0451294330BD6FEA040403
:1003A0001F3C1CDA0C340EDC04F11404C4F12002EE
:1003B00020FA04F001FA02F340EA030021FA04F300
:1003C00045EA030130BDC4F10C04C4F1200220FA57
:1003D00002F001FA04F340EA0300294630BD21FA95
:1003E00004F0294630BD94F0000F83F4801306BF5B
:1003F00081F480110134013D4EE77FEA645C18BF4F
:100400007FEA655C29D094EA050F08BF90EA020FE5
:1004100005D054EA000C04BF1946104630BD91EADD
:10042000030F1EBF0021002030BD5FEA545C05D1E0
:100430004000494128BF41F0004130BD14F580041F
:100440003CBF01F5801130BD01F0004545F0FE4193
:1004500041F470014FF0000030BD7FEA645C1ABFC8
:10046000194610467FEA655C1CBF0B46024650EAFF
:10047000013406BF52EA033591EA030F41F400212B
:1004800030BD00BF90F0000F04BF0021704730B5B1
:100490004FF4806404F132044FF000054FF0000186
:1004A00050E700BF90F0000F04BF0021704730B547
:1004B0004FF4806404F1320410F0004548BF40421C
:1004C0004FF000013EE700BF42004FEAE2014FEA71
:1004D00031014FEA02701FBF12F07F4393F07F4F4C
:1004E00081F06051704732F07F4208BF704793F04F
:1004F0007F4F04BF41F40021704730B54FF4607462
:1005000001F0004521F000411CE700BF50EA010264
:1005100008BF704730B54FF000050AE050EA01020D
:1005200008BF704730B511F0004502D5404261EB7D
:1005300041014FF4806404F132045FEA915C3FF4BE
:10054000D8AE4FF003025FEADC0C18BF03325FEA5B
:10055000DC0C18BF033202EBDC02C2F1200300FA0C
:1005600003FC20FA02F001FA03FE40EA0E0021FA31
:1005700002F11444BDE600BF70B54FF0FF0C4CF41F
:10058000E06C1CEA11541DBF1CEA135594EA0C0FD1
:1005900095EA0C0F00F0DEF82C4481EA030621EA0C
:1005A0004C5123EA4C5350EA013518BF52EA033547
:1005B00041F4801143F4801338D0A0FB02CE4FF0F9
:1005C0000005E1FB02E506F00042E0FB03E54FF029
:1005D0000006E1FB03569CF0000F18BF4EF0010E21
:1005E000A4F1FF04B6F5007F64F5407404D25FEA1D
:1005F0004E0E6D4146EB060642EAC62141EA5551D0
:100600004FEAC52040EA5E504FEACE2EB4F1FD0C11
:1006100088BFBCF5E06F1ED8BEF1004F08BF5FEA8F
:10062000500E50F1000041EB045170BD06F0004641
:1006300046EA010140EA020081EA0301B4EB5C04EE
:10064000C2BFD4EB0C0541EA045170BD41F48011E6
:100650004FF0000E013C00F3AB8014F1360FDEBF0B
:10066000002001F0004170BDC4F10004203C35DAE7
:100670000C341BDC04F11404C4F1200500FA05F36A
:1006800020FA04F001FA05F240EA020001F000420B
:1006900021F0004110EBD37021FA04F642EB060181
:1006A0005EEA430E08BF20EAD37070BDC4F10C04AB
:1006B000C4F1200500FA04F320FA05F001FA04F26F
:1006C00040EA020001F0004110EBD37041F100015B
:1006D0005EEA430E08BF20EAD37070BDC4F1200566
:1006E00000FA05F24EEA020E20FA04F301FA05F2CE
:1006F00043EA020321FA04F001F0004121FA04F276
:1007000020EA020000EBD3705EEA430E08BF20EA45
:10071000D37070BD94F0000F0FD101F0004640007F
:1007200041EB010111F4801F08BF013CF7D041EA01
:10073000060195F0000F18BF704703F00046520005
:1007400043EB030313F4801F08BF013DF7D043EAD6
:100750000603704794EA0C0F0CEA135518BF95EA8C
:100760000C0F0CD050EA410618BF52EA4306D1D113
:1007700081EA030101F000414FF0000070BD50EA32
:10078000410606BF1046194652EA430619D094EABC
:100790000C0F02D150EA013613D195EA0C0F05D1A6
:1007A00052EA03361CBF104619460AD181EA0301FA
:1007B00001F0004141F0FE4141F470014FF00000B2
:1007C00070BD41F0FE4141F4780170BD70B54FF04D
:1007D000FF0C4CF4E06C1CEA11541DBF1CEA1355CD
:1007E00094EA0C0F95EA0C0F00F0A7F8A4EB0504AF
:1007F00081EA030E52EA03354FEA013100F08880A6
:100800004FEA03334FF0805545EA131343EA12636E
:100810004FEA022245EA111545EA10654FEA002623
:100820000EF000419D4208BF964244F1FD0404F5DC
:10083000407402D25B084FEA3202B61A65EB030538
:100840005B084FEA32024FF480104FF4002CB6EBF5
:10085000020E75EB030E22BFB61A754640EA0C0075
:100860005B084FEA3202B6EB020E75EB030E22BFB5
:10087000B61A754640EA5C005B084FEA3202B6EBF6
:10088000020E75EB030E22BFB61A754640EA9C00B5
:100890005B084FEA3202B6EB020E75EB030E22BF85
:1008A000B61A754640EADC0055EA060E18D04FEA43
:1008B000051545EA16754FEA06164FEAC30343EAE3
:1008C00052734FEAC2025FEA1C1CC0D111F4801FB0
:1008D0000BD141EA00014FF000004FF0004CB6E7A9
:1008E00011F4801F04BF01430020B4F1FD0C88BF48
:1008F000BCF5E06F3FF6AFAEB5EB030C04BFB6EB53
:10090000020C5FEA500C50F1000041EB045170BD45
:100910000EF0004E4EEA113114EB5C04C2BFD4EB72
:100920000C0541EA045170BD41F480114FF0000EF6
:10093000013C90E645EA060E8DE60CEA135594EA72
:100940000C0F08BF95EA0C0F3FF43BAF94EA0C0F75
:100950000AD150EA01347FF434AF95EA0C0F7FF4EA
:1009600025AF104619462CE795EA0C0F06D152EA3E
:1009700003353FF4FDAE1046194622E750EA410622
:1009800018BF52EA43067FF4C5AE50EA41047FF433
:100990000DAF52EA43057FF4EBAE12E74FF0FF3C98
:1009A00006E000BF4FF0010C02E000BF4FF0010C69
:1009B0004DF804CD4FEA410C7FEA6C5C4FEA430CE2
:1009C00018BF7FEA6C5C1BD001B050EA410C0CBF31
:1009D00052EA430C91EA030F02BF90EA020F002093
:1009E000704710F1000F91EA030F58BF994208BFFA
:1009F00090422CBFD8176FEAE37040F001007047B7
:100A00004FEA410C7FEA6C5C02D150EA013C07D10D
:100A10004FEA430C7FEA6C5CD6D152EA033CD3D058
:100A20005DF8040B704700BF8446104662468C4652
:100A30001946634600E000BF01B5FFF7B7FF002885
:100A400048BF10F1000F01BD4DF808EDFFF7F4FFAE
:100A50000CBF012000205DF808FB00BF4DF808ED39
:100A6000FFF7EAFF34BF012000205DF808FB00BF5C
:100A70004DF808EDFFF7E0FF94BF012000205DF87E
:100A800008FB00BF4DF808EDFFF7CEFF94BF012033
:100A900000205DF808FB00BF4DF808EDFFF7C4FF2C
:100AA00034BF012000205DF808FB00BF4FEA41027F
:100AB00012F5001215D211D56FF47873B3EB6252B0
:100AC00012D94FEAC12343F0004343EA505311F0D7
:100AD000004F23FA02F018BF404270474FF0000069
:100AE000704750EA013005D111F0004008BF6FF0A7
:100AF000004070474FF00000704700BF4FEA4102CE
:100B0000B2F1E04324BFB3F5001CDCF1FE5C0DD96B
:100B100001F0004C4FEAC0024CEA5070B2F1004FB5
:100B200040EB830008BF20F00100704711F0804FB8
:100B300021D113F13872BCBF01F00040704741F47D
:100B400080114FEA5252C2F11802C2F1200C10FA81
:100B50000CF320FA02F018BF40F001004FEAC12365
:100B60004FEAD32303FA0CFC40EA0C0023FA02F309
:100B70004FEA4303CCE77FEA625307D150EA0133DF
:100B80001EBF4FF0FE4040F44000704701F00040AF
:100B900040F0FE4040F40000704700BF80F000408D
:100BA00002E000BF81F0004142001FBF5FEA410345
:100BB00092EA030F7FEA226C7FEA236C6AD04FEA45
:100BC0001262D2EB1363C1BFD2184140484041408A
:100BD000B8BF5B42192B88BF704710F0004F40F43C
:100BE000000020F07F4018BF404211F0004F41F458
:100BF000000121F07F4118BF494292EA030F3FD024
:100C0000A2F1010241FA03FC10EB0C00C3F1200336
:100C100001FA03F100F0004302D5494260EB4000C5
:100C2000B0F5000F13D3B0F1807F06D340084FEA30
:100C3000310102F10102FE2A51D2B1F1004F40EB25
:100C4000C25008BF20F0010040EA0300704749008D
:100C500040EB0000013A28BFB0F5000FEDD2B0FA2A
:100C600080FCACF1080CB2EB0C0200FA0CF0AABF4D
:100C700000EBC25052421843BCBFD04018437047EB
:100C800092F0000F81F4000106BF80F400000132F1
:100C9000013BB5E74FEA41037FEA226C18BF7FEAC8
:100CA000236C21D092EA030F04D092F0000F08BF0A
:100CB0000846704790EA010F1CBF0020704712F0F1
:100CC0007F4F04D1400028BF40F00040704712F130
:100CD00000723CBF00F50000704700F0004343F095
:100CE000FE4040F4000070477FEA226216BF0846CB
:100CF0007FEA23630146420206BF5FEA412390EA8E
:100D0000010F40F4800070474FF0000304E000BF83
:100D100010F0004348BF40425FEA000C08BF704734
:100D200043F0964301464FF000001CE050EA0102F8
:100D300008BF70474FF000030AE000BF50EA01020D
:100D400008BF704711F0004302D5404261EB4101FA
:100D50005FEA010C02BF84460146002043F0B6431F
:100D600008BFA3F18053A3F50003BCFA8CF2083A44
:100D7000A3EBC25310DB01FA02FC634400FA02FC4D
:100D8000C2F12002BCF1004F20FA02F243EB020054
:100D900008BF20F00100704702F1200201FA02FCB6
:100DA000C2F1200250EA4C0021FA02F243EB0200A9
:100DB00008BF20EADC7070474FF0FF3C06E000BF40
:100DC0004FF0010C02E000BF4FF0010C4DF804CDD4
:100DD0004FEA40024FEA41037FEA226C18BF7FEAE4
:100DE000236C11D001B052EA530C18BF90EA010FE6
:100DF00058BFB2EB030088BFC81738BF6FEAE17075
:100E000018BF40F0010070477FEA226C02D15FEA10
:100E1000402C05D17FEA236CE4D15FEA412CE1D07C
:100E20005DF8040B704700BF844608466146FFE743
:100E30000FB5FFF7C9FF002848BF10F1000F0FBD25
:100E40004DF808EDFFF7F4FF0CBF012000205DF81E
:100E500008FB00BF4DF808EDFFF7EAFF34BF0120A3
:100E600000205DF808FB00BF4DF808EDFFF7E0FF3C
:100E700094BF012000205DF808FB00BF4DF808ED8D
:100E8000FFF7D2FF94BF012000205DF808FB00BFF0
:100E90004DF808EDFFF7C8FF34BF012000205DF8D2
:100EA00008FB00BF4FEA4002B2F1FE4F0FD34FF0F4
:100EB0009E03B3EB12620DD94FEA002343F00043C7
:100EC00010F0004F23FA02F018BF404270474FF075
:100ED0000000704712F1610F01D1420205D110F0FC
:100EE000004008BF6FF0004070474FF000007047AF
:100EF00053B94AB9002908BF00281CBF4FF0FF3181
:100F00004FF0FF3001F0DEB8ADF1080C6DE904CE12
:100F100000F006F8DDF804E0DDE9022304B07047D4
:100F20002DE9F047089E0D4604468846002B4DD11A
:100F30008A42944668D9B2FA82F252B101FA02F3B7
:100F4000C2F1200120FA01F10CFA02FC41EA030887
:100F500094404FEA1C45210CB8FBF5FE1FFA8CF7B4
:100F600005FB1E8341EA03430EFB07F199420BD9AF
:100F70001CEB03030EF1FF3080F01E81994240F21A
:100F80001B81AEF1020E63445B1AA4B2B3FBF5F011
:100F900005FB103344EA034400FB07F7A7420AD9D4
:100FA0001CEB040400F1FF3380F00881A74240F2FB
:100FB000058164440238E41B40EA0E4000211EB162
:100FC000D4400023C6E90043BDE8F0878B4208D92E
:100FD000002E00F0EE800021C6E900050846BDE8BD
:100FE000F087B3FA83F100294AD1AB4202D382429F
:100FF00000F2F980841A65EB030301209846002E65
:10100000E2D0C6E90048DFE702B9FFDEB2FA82F2B9
:10101000002A40F09180A1EB0C054FEA1C471FFA13
:101020008CFE0121B5FBF7F307FB1350250C45EAB5
:1010300000450EFB03F0A84208D91CEB050503F19F
:10104000FF3802D2A84200F2CB8043462D1AA4B248
:10105000B5FBF7F007FB105544EA05440EFB00FE14
:10106000A64508D91CEB040400F1FF3502D2A645C1
:1010700000F2BB802846A4EB0E0440EA03409EE742
:10108000C1F120078B4022FA07FC4CEA030C20FA3E
:1010900007F405FA01F31C43FD404FEA1C4900FA2E
:1010A00001F3B5FBF9F8200C1FFA8CFE09FB18556B
:1010B00040EA054508FB0EF0A84202FA01F20BD9FE
:1010C0001CEB050508F1FF3A80F08880A84240F249
:1010D0008580A8F1020865442D1AA4B2B5FBF9F089
:1010E00009FB105544EA054500FB0EFEAE4508D944
:1010F0001CEB050500F1FF346CD2AE456AD902380D
:10110000654440EA0840A0FB0294A5EB0E05A54209
:10111000C846A64656D353D05EB1B3EB080265EB82
:101120000E0505FA07F722FA01F3CD401F43C6E981
:1011300000750021BDE8F087C2F1200320FA03F119
:101140000CFA02FC25FA03F395400D434FEA1C47C5
:101150001FFA8CFEB3FBF7F107FB11302B0C43EAAF
:10116000004301FB0EF0984204FA02F408D91CEB8C
:10117000030301F1FF382FD298422DD9023963447D
:101180001B1AADB2B3FBF7F007FB103345EA03457A
:1011900000FB0EF3AB4208D91CEB050500F1FF384C
:1011A00016D2AB4214D902386544ED1A40EA014127
:1011B00038E73146304607E78646E5E61846FAE660
:1011C0004B45A9D2B9EB020864EB0C0E0138A3E73A
:1011D0004046EAE7204694E74146D1E7D0467BE720
:1011E000023B654432E7084609E76444023842E7B7
:1011F00003685A004CBF43F0004323F000431844F7
:10120000704700BF2DE9F84329B34F1E0446154629
:101210003E464FF0000808EB060101EBD171491082
:1012200004EBC1094846FFF7E3FF0346C800083056
:101230008F42204409D0AB4209D8FFF7D9FF0138CB
:10124000A8420AD201F10108E5E7AB4205D9884579
:1012500001D04E1EDFE74FF000094846BDE8F88395
:10126000012807D0022807D0044B00280CBF1846DD
:10127000002070470248704702487047391900083B
:101280003D1900084119000830B5234B83B00446CE
:101290008D1E3BB301A92846AFF30080E8B1019948
:1012A0002A46FFF7AFFF0146B8B1FFF7A1FF4B6831
:1012B000A064012B2CD0002B01F1040024DBFFF7EC
:1012C00097FF0023C4E913030368002B11DBFFF72A
:1012D0008FFF2061002003B030BD0023092023616F
:1012E00003B030BD0D4B0E49C91AC9101846019103
:1012F000D6E7C3F30360FFF7B3FF0028206114BFF4
:101300000020092003B030BD0123C4E91303DBE74B
:10131000002323610520DEE700000000B4EC000894
:101320002CEE00080368DA0710B5044606D49B07C4
:1013300000F1480009D500F05BFC2368590709D586
:101340001A070ED5DB0613D510BD00F049FC236843
:101350005907F5D404F1D00000F052FC23681A07B5
:10136000F0D404F5A87000F053FC2368DB06EBD43E
:1013700004F5E870BDE8104000F08EBC092070470D
:101380000346006800B11844704700BF704700BFB3
:1013900070B504460E46316C2046FFF775FF0546D2
:1013A00088B9326C62612369324621460120984730
:1013B0000828F0D0072806D12846316CFFF7E6FF51
:1013C000301D00F001FC06F04DF900BF2DE9F0479B
:1013D0000D1DD0F80C80D0F81890074614460FCD9C
:1013E000ADF5727D0DF10C0CACE80F000FCDACE843
:1013F0000F000FCDACE80F0095E80F0002AE4FF0E4
:10140000000E8CE80F00C6F800E020E0336C7B6132
:101410004FF4F07231467AA800F056FE3B697AAA82
:10142000394650469847889B73642146CDE9006948
:1014300005463B463A460120C0470446E0B94FF412
:10144000F0727AA9304600F03FFE082D1AD1316CB7
:101450003846FFF719FF09345FFA84FA0546002879
:10146000D4D0B36B73643A46CDE900693B464AF089
:1014700010010120C04700B1092528460DF5727DF5
:10148000BDE8F087072DF7D12046316CFFF77EFFCE
:1014900003A800F099FB00BF406C7047F0B5CB6B20
:1014A0000B6401F1040C0E460546BCE80F00F9B0D0
:1014B00001AC0FC4BCE80F000FC4BCE80F000FC4A0
:1014C0009CE80F004FF0FF3784E80F00009706E01C
:1014D0002B696A46294698470828044608D110997E
:1014E0002846FFF7D1FE0028F2D0092079B0F0BDE0
:1014F0006846FFF717FF062CF7D131462846FFF75D
:1015000047FF00BFC160D96B826119640022194690
:101510005CE700BF70B5C66843690B64AEB9036988
:101520000A4604460D46014602209847072805D082
:1015300008280FD129462046FFF72AFF3046296C9C
:10154000FFF724FF281D00F03FFB0122FFF73EFFBD
:1015500006F088F806F086F8C2681AB1CA6B0A6409
:10156000002233E79AE700BF704700BF8368014657
:101570000BB1012018477047012912D009D873B95F
:101580000F2A0CD800EB820218465368009A1360A9
:1015900070470339012994BF0120022070470220BF
:1015A00070470846704700BF00B585B00A46002363
:1015B00003A900911946FFF7DFFF039805B05DF816
:1015C00004FB00BF012912D009D873B90F2A0CD827
:1015D00000EB8200009A1268426018467047033997
:1015E000012994BF0120022070470220704708465D
:1015F000704700BF10B584B0002303AC0392009481
:101600000A461946FFF7DEFF04B010BD70B5D36B74
:10161000136402F1040C05460C46BCE80F00ADF55E
:101620000E7D0DF15C0EAEE80F00BCE80F00AEE8D9
:101630000F00BCE80F00AEE80F009CE80F004FF071
:10164000FF368EE80F00169610E0FFF7D3FF214615
:1016500016A8A847034616AA6946082083B9049B22
:101660009847052806460CD0092809D026996846CF
:10167000FFF70AFE03466A460C2116A8002BE4D0A9
:10168000092616A8FFF74EFE30460DF50E7D70BDFB
:101690002DE9F04FCC6C89B01E4654F8043B0694FB
:1016A0000D46174600F00308002E79D01A0C1B04D3
:1016B00005938DF81D200223D2B204EB82048DF82D
:1016C0001C302B6DB8F1020F08BFAC6B13F0010397
:1016D0000CD005A9384600F079FB18B9082009B0EC
:1016E000BDE8F08F092009B0BDE8F08FD4F800A064
:1016F000BAF1000FEDD0019300F008030293022E1F
:101700004AD0B4F800A0B4F802900434AB6C29F0CD
:10171000010B0F2138469B44FFF746FF834539D81C
:101720002AF001039B44834594BF002001204FEA27
:10173000490303F002030AF0010A43EA0A03012BFA
:1017400049D0022B32D0002BCCD1B8F1000F02D0FF
:10175000002840F0CD800434D4F800A0BAF1000F86
:10176000CDD105A9384600F031FB0028BAD1019B44
:10177000002BB3D00F213846FFF716FF0E2102468B
:101780003846FFF737FF38466A4A0F21FFF732FF26
:101790000720A8E70020CAE7D4F804900834B5E78A
:1017A0001B0205930323ADF81C308AE7236823F05E
:1017B000004BB8F1000F45D128B1029A002A5CD045
:1017C000BBF1000F74D0002B00DA04340BF1010BD5
:1017D00004EB8B04C0E7B8F1000F19D1B0B1636816
:1017E0002268991C4FEAD2723FF47CAF05F1580190
:1017F0000133049100F09080201DFFF7C1FD04AB80
:1018000001462846AFF3008000285BD10834A3E7E7
:101810000D213846D5F82090FFF7C6FE8145F5D159
:10182000AB6A9C42F2D12046FFF7E2FC0F21024650
:101830003846FFF7DFFE38462A460021FFF7DAFE7A
:10184000072050E70D213846D5F82090FFF7ACFE71
:10185000814501D02368B6E7AB6A9C42FAD10423E4
:101860000022C5E90B23E318C5F828B06B63236891
:10187000002B59DB01230193A8E705F15803CDF8AC
:101880000C8004F1040AB04691461E460EE0504614
:101890000496FFF775FD0022014604AB284609F1C6
:1018A00001090AF1040AAFF30080E0B9D945EED18D
:1018B0000D213846FFF778FE049BAC62C5E90803AA
:1018C000062010E781460D213846FFF76DFEB9F17D
:1018D000020F286225D12B46049A43F82C2F6B6205
:1018E000AC620620FFE646462368DDF80C806AE716
:1018F0002046FFF77DFC04340246AC6328461446BC
:10190000AFF3008000283FF4EDAE384622460F21A9
:10191000FFF770FE0720E6E60D213846FFF744FE8C
:101920002862049B6B62DBE70BF1010004EB800093
:101930007AE700BF000000000023A9E60123A7E624
:101940000223A5E62DE9F0430646C3B015461C4622
:10195000042900F2BF80DFE801F09E57BD2D03008F
:10196000002C40F0B780102A00F2B4800368D8063B
:1019700000F1F98020AF384600F098F9B46B394691
:1019800000234FF0010C0CFA03F22A42204603F127
:10199000010303D050F8042B0A600446042B01F124
:1019A0000401F0D13846B46300F076F9002043B06A
:1019B000BDE8F083032C40F08D8094B204EB124319
:1019C000102B4FEA124500F2858003681F0700F1D3
:1019D000D28020AF384600F03DF9B26B07EBC5016D
:1019E00054B10B46D01A01EBC401E4001D5843F872
:1019F000045B8B42FAD122443846B26300F008F906
:101A0000002043B0BDE8F083012C4FEA124895B2A4
:101A10005CD0052C5ED108EB0509B9F1200F59D82F
:101A2000B8F10F0F79D9A946002D40F08A80B36B29
:101A30006DB320AF4FF0000907EBC807043F03EB7D
:101A4000C50553F8041B47F8041FAB42F9D1B9F19F
:101A5000000F0FD06F464146102938BF102107EB09
:101A6000C101843903EBC90553F8040B41F8040F95
:101A7000AB42F9D1012C00F08680B8F10F0FB563AD
:101A800047D9B9F1000F02D0684600F0B9F800203C
:101A900043B0BDE8F083ECB9806B23461FFA82FCAB
:101AA0000124371D04FA03F212EA0C0F014604D098
:101AB00051F8042B47F8232008460133102BF1D1AD
:101AC00015F40055E3D1B063284604E008EB0503A4
:101AD000102B03D9022043B0BDE8F083B8F10F0FFB
:101AE000F8D83368DA0706D5304623F0030340F808
:101AF000483B00F079F820AF384600F075F8B36B3A
:101B0000002D97D11D460435B563384600F068F8BE
:101B1000BDE720A800F06CF8B3E7B9F1100F40D989
:101B2000A9F110093368D90708D523F0010330461D
:101B300043F0020340F8483B00F05EF8B9F1000FB3
:101B400032D033685A0720D4B8F10F0F25D96F4629
:101B50003846C8F1100500F057F8002DB36B7FF739
:101B60007AAF20AF68E723F01003336006F5E87022
:101B700000F09CF8FEE623F00803036000F5A8706F
:101B800000F068F825E720AFBDE7304623F00403F6
:101B900040F8D03B00F038F8D6E720A800F02CF849
:101BA000D5E74FF00009BDE7B8F10F0F3FF63FAFA3
:101BB00020AF384600F020F8B36B002D7FF43AAF29
:101BC000384600F015F862E700F1340191E838007A
:101BD0009C46A6464CF8045D90E8FF0FE54600BD24
:101BE00090EC210B704700BF80EC210B704700BFC9
:101BF00090EC200B704700BF80EC200B704700BFBB
:101C0000D0EC200B704700BFC0EC200B704700BF2A
:101C1000F0EC0201F0EC0211F0EC0221F0EC0231E8
:101C2000F0EC0241F0EC0251F0EC0261F0EC0271D8
:101C3000F0EC0281F0EC0291F0EC02A1F0EC02B1C8
:101C4000F0EC02C1F0EC02D1F0EC02E1F0EC02F1B8
:101C5000704700BFE0EC0201E0EC0211E0EC022171
:101C6000E0EC0231E0EC0241E0EC0251E0EC026118
:101C7000E0EC0271E0EC0281E0EC0291E0EC02A108
:101C8000E0EC02B1E0EC02C1E0EC02D1E0EC02E1F8
:101C9000E0EC02F1704700BFB0FC0181B0FC0191A3
:101CA000B0FC01A1B0FC01B1704700BFA0FC0181F4
:101CB000A0FC0191A0FC01A1A0FC01B1704700BFF4
:101CC000EC4600B52DE900502DE9FF1F4FF0000351
:101CD0002DE90C0001A9FFF7E1FBDDF840E012B0AF
:101CE000704700BFEC4600B52DE900502DE9FF1FFD
:101CF0004FF000032DE90C0001A9FFF70BFCDDF804
:101D000040E012B0704700BFEC4600B52DE900502E
:101D10002DE9FF1F4FF000032DE90C0001A9FFF78B
:101D20001BFCDDF840E012B0704700BFEC4600B588
:101D30002DE900502DE9FF1F4FF000032DE90C00A5
:101D400001ABFFF7DFFBDDF840E012B0704700BFEA
:101D5000EC4600B52DE900502DE9FF1F4FF00003C0
:101D60002DE90C0001AAFFF751FCDDF840E012B0AC
:101D7000704700BF027A03467AB9427AA2B141683D
:101D8000013A10B44272086803220C1D1A72020252
:101D90005C60000E10BC1A6070470068013A1A724D
:101DA00002021A60000E7047B020704700B585B07F
:101DB000002303AA009219460C22FFF7DDFB0398CB
:101DC00005B05DF804FB00BFF0E700BF2DE9F0436C
:101DD000054685B00E464FF000083046FFF7CAFFB3
:101DE000B028044600F0BA80070620D500F0F003C2
:101DF000802B4DD0902B36D0A02B60D0B02B74D040
:101E0000C02B00F08B8000F0F803D02B0BD100F03A
:101E100007020132052342F4002201212846FFF780
:101E200091FD0028D9D0092005B0BDE8F0838300DA
:101E3000DBB21F1D0DF10C0900231946CDF80090EF
:101E40000D222846FFF798FB039BCDF80090600613
:101E50004CBFDF1BFF1800230D22194628460397AD
:101E6000FFF7B0FBB9E700F00D030D2BDBD003AF9C
:101E7000002300F00F02194600972846FFF77CFB6D
:101E8000002300970D2219462846FFF79BFBA4E785
:101E90003046FFF76FFF24022043B0F5004FC2D059
:101EA00004010023A2B219462846FFF74BFD002883
:101EB000B9D114F4004F18BF4FF001088DE7C243A9
:101EC00002F007034FF47F621A41010702F47F62B8
:101ED0004FF0000348BF42F4804219462846FFF7FE
:101EE00031FD00283FF479AF9DE7B1283BD0B228FF
:101EF00000F09380B32841D000F0FC03B42B92D0C3
:101F000000F007020132012342F40022194628465C
:101F1000FFF718FD00283FF460AF84E7C6284AD0D9
:101F2000C72854D000F0F803C02B63D0C82868D06D
:101F3000C9287FF478AF3046FFF71CFF020300F09A
:101F40000F0002F4702201300243012105232846CC
:101F5000FFF7F8FC00283FF440AF64E7B8F1000F4A
:101F600018D0002060E73046FFF704FF0246002843
:101F70003FF459AF10F0F003C8D054E73046FFF7F4
:101F8000F9FE020300F00F03013302F470221A433A
:101F90000123BBE703AC43460E224146009428468A
:101FA000FFF7EAFA009443460F2241462846FFF71E
:101FB00009FB404638E73046FFF7DCFE020300F03D
:101FC0000F03013302F470221A4303239EE73046C5
:101FD000FFF7D0FE024600283FF425AF10F0F003D3
:101FE0007FF421AF04212846FFF7ACFC00283FF422
:101FF000F4AE18E700F00F020132032342F420226E
:1020000084E73046FFF7B6FE00F0F00200F00F0361
:102010001032013343EA023297E700230DF10C0935
:102020000D221946CDF800902846FFF7A5FA304654
:10203000FFF7A0FE02064FF002040CD5039B00F050
:102040007F00A040184403903046FFF793FE03063C
:1020500004F10704F2D4039BCDF8009000F07F0256
:10206000A24003F501731A440023039219460D227E
:102070002846FFF7A7FAB0E610B5C26C536884B0E3
:102080004FF0030C08321C0208461B0E01A90194F4
:1020900002928DF80CC08DF80D30FFF797FE04B05A
:1020A00010BD00BF08B5FFF78FFE806C08BD00BFF4
:1020B00008B5FFF789FEC06CC379023300EB8300DB
:1020C00008BD00BF704700BF844641EA000313F01B
:1020D00003036DD1403A41D351F8043B40F8043B2F
:1020E00051F8043B40F8043B51F8043B40F8043BF2
:1020F00051F8043B40F8043B51F8043B40F8043BE2
:1021000051F8043B40F8043B51F8043B40F8043BD1
:1021100051F8043B40F8043B51F8043B40F8043BC1
:1021200051F8043B40F8043B51F8043B40F8043BB1
:1021300051F8043B40F8043B51F8043B40F8043BA1
:1021400051F8043B40F8043B51F8043B40F8043B91
:1021500051F8043B40F8043B403ABDD2303211D331
:1021600051F8043B40F8043B51F8043B40F8043B71
:1021700051F8043B40F8043B51F8043B40F8043B61
:10218000103AEDD20C3205D351F8043B40F8043B31
:10219000043AF9D2043208D0D2071CBF11F8013B2F
:1021A00000F8013B01D30B8803806046704700BFF5
:1021B000082A13D38B078DD010F003038AD0C3F104
:1021C0000403D21ADB071CBF11F8013B00F8013BE6
:1021D00080D331F8023B20F8023B7BE7043AD9D3A5
:1021E000013A11F8013B00F8013BF9D20B7803707A
:1021F0004B7843708B788370604670470000000016
:10220000A2EB0300704700BF02780B78012A28BFB9
:102210009A42F5D16DE9044540EA0104CDE902672F
:102220006FF0000C4FEA447212B380EA010414F01C
:10223000070F6AD100F0070420F0070004F003053F
:1022400021F007014FEAC505F0E8042314F0040F5C
:10225000F1E804670CFA05F462EA040266EA04068F
:102260000AD063EA0403624667EA0407664603E0AD
:10227000F0E80423F1E8046782FA4CF582EA0604E8
:10228000A4FA8CF46CBB83FA4CF583EA0705A5FA33
:102290008CF595B950E9022351E9026782FA4CF5B1
:1022A00082EA0604A4FA8CF483FA4CF583EA070563
:1022B000A5FA8CF52543DBD09CB92DBAB5FA85F487
:1022C00024F0070427FA04F1DDE9026723FA04F396
:1022D00003F0FF0001F0FF01FDE80445A0EB010061
:1022E000704724BAB4FA84F424F0070426FA04F1FF
:1022F000DDE9026722FA04F202F0FF0001F0FF01BB
:10230000FDE80445A0EB0100704714F0030F3CD139
:1023100010F0030428D150F8082B51F8083B82FA3A
:102320004CF582EA0305A5FA8CF55DB950F8042C4A
:1023300051F8043C82FA4CF582EA0305A5FA8CF5C3
:10234000002DE8D02DBAB5FA85F424F0070423FA5D
:1023500004F122FA04F202F0FF0001F0FF01FDE8AF
:102360000445A0EB010070474FEAC40420F00300CD
:1023700050F8082B21F0030151F8083B0CFA04F443
:1023800062EA040263EA0403C9E710F003041AD006
:10239000A1EB040120F00300E40750F8042B06D061
:1023A0000FD28B785FFAA2F4E41A06D12BB1CB7866
:1023B0005FFAB2F4E41A00D11BB920465DF8104B65
:1023C000704701F1040150F8042BCC0721F0030100
:1023D00051F8043B48D824D222F07F4482FA4CF5CD
:1023E00094EA1325A5FA8CF50AD165B951F8043B96
:1023F00084EA0204B4EB036F0ED150F8042BEBE730
:102400004FEA132355E035F07F454DD10878FDE8BC
:102410000445C0F1000070474FEA126203F0FF0369
:1024200047E002EA1C4482FA4CF594EA1345A5FA07
:102430008CF50AD165B951F8043B84EA0204B4EB87
:10244000034F0CD150F8042BEBE74FEA134330E075
:1024500015EA1C4528D10B884FEA124229E04FEAC1
:10246000124203EA1C4324E002F0FF0482FA4CF516
:1024700094EA1365A5FA8CF50AD165B951F8043BC5
:1024800084EA0204B4EB032F09D150F8042BEBE7E4
:102490004FEA13630DE015F0FF0F05D10B684FEA0B
:1024A000122223F07F4304E04FF00000FDE80445D2
:1024B000704712BA1BBA82FA4CF482EA0304A4FAF7
:1024C0008CF5B5FA85F402FA04F203FA04F34FEA44
:1024D0001260FDE80445A0EB1360704700000000A7
:1024E00000000000000000000000000000000000EC
:1024F00000000000000000000000000000000000DC
:1025000090F800F06DE9024520F007016FF0000C33
:1025100010F0070491F820F040F049804FF00004DB
:102520006FF00700D1E9002391F840F000F10800B6
:1025300082FA4CF2A4FA8CF283FA4CF3A2FA8CF3EE
:102540004BBBD1E9022382FA4CF200F10800A4FA55
:102550008CF283FA4CF3A2FA8CF3E3B9D1E90423A9
:1025600082FA4CF200F10800A4FA8CF283FA4CF3E0
:10257000A2FA8CF37BB9D1E9062301F1200182FA9A
:102580004CF200F10800A4FA8CF283FA4CF3A2FAA0
:102590008CF3002BC6D0002A04BF04301A4612BAAE
:1025A000B2FA82F2FDE8024500EBD2007047D1E9B1
:1025B000002304F00305C4F100004FEAC50514F040
:1025C000040F91F840F00CFA05F562EA05021CBF11
:1025D00063EA050362464FF00004A9E7000000002B
:1025E00001F0FF01102A2BDB10F0070F08D010F8C4
:1025F000013B013A8B422DD010F0070F42B3F6D1C8
:10260000F0B441EA012141EA014122F007047FF0E0
:1026100000070023F0E80256083C85EA010586EA37
:10262000010685FA47F5A3FA87F586FA47F6A5FA73
:1026300087F68EB9EED1F0BC01F0FF0102F007027F
:1026400032B110F8013B013A83EA010313B1F8D12A
:102650000020704701387047002D06BF354603380B
:10266000073815F0010F07D1013015F4807F02BF44
:10267000013015F4C03F0130F0BC0138704700BF95
:102680004FEA410C7FEA6C5C02D150EA013C0AD16E
:102690004FEA430C7FEA6C5C02D152EA033C02D160
:1026A0004FF0000070474FF00100704700B585B053
:1026B000002300930193029303931448144A026089
:1026C0004360836001220261027680F82030C36299
:1026D00010498162C360C26180F83030426101F00C
:1026E00051FB68B90A23009301230193022302934B
:1026F0006946064801F08CFC28B905B05DF804FB7A
:1027000000F0E0F9EEE700F0DDF9F6E7540A00200A
:10271000002001400100000F00B585B000230093A8
:102720000193029303931448144A02604360836048
:1027300001220261027680F82030C3621049816272
:10274000C360C26180F83030426101F01BFB68B9A0
:102750000B23009301230193022302936946064849
:1027600001F056FC28B905B05DF804FB00F0AAF9A9
:10277000EEE700F0A7F9F6E79C0A002000210140EF
:102780000100000F30B58BB004460023059306937B
:102790000793089309930368404A934204D0404A40
:1027A00093423DD00BB030BD002501953D4B5A6C96
:1027B00042F480725A645A6C02F480720192019A57
:1027C00002951A6B42F004021A631B6B03F00403B8
:1027D0000293029B012305930323069305A9324824
:1027E00001F056FF3148324B036045608560C5609B
:1027F0004FF4806303614FF4006343614FF400536F
:1028000083614FF48073C3610562456201F0B6FDD8
:1028100018B9264BA3639C63C4E700F053F9F8E7AB
:10282000002503951F4B5A6C42F400725A645A6C8F
:1028300002F400720392039A04951A6B42F00402A8
:102840001A631B6B03F004030493049B0223059398
:102850000323069305A9144801F01AFF1548164BE7
:1028600003604FF0007343608560C5604FF4806380
:1028700003614FF4006343614FF4005383614FF4ED
:102880008073C3610562456201F078FD18B9094B98
:10289000A3639C6386E700F015F9F8E70020014088
:1028A000002101400038024000080240E40A0020F4
:1028B00010640240440B00204064024010B582B016
:1028C000002401940D4B1A6B42F480021A631B6BB7
:1028D00003F480030193019B22462146382001F036
:1028E00075FC382001F0AAFC224621463A2001F06E
:1028F0006DFC3A2001F0A2FC02B010BD003802408D
:10290000F0B58DB000240794089409940A940B94B0
:1029100001943D4B1A6B42F080021A631A6B02F06D
:1029200080020192019A02941A6B42F004021A6327
:102930001A6B02F004020292029A03941A6B42F09C
:1029400010021A631A6B02F010020392039A0494A5
:102950001A6B42F008021A631A6B02F00802049222
:10296000049A05941A6B42F001021A631A6B02F082
:1029700001020592059A06941A6B42F002021A634C
:102980001B6B03F002030693069B204F22464FF475
:102990004041384601F075FF1D4E22464FF440710C
:1029A000304601F06EFF0C2307934FF48813089311
:1029B0000125099507A9174801F06AFE4FF4404325
:1029C0000793089509940A9407A9384601F060FE18
:1029D0004FF440730793089509940A9407A9304669
:1029E00001F056FE22462146082001F0EFFB0820A8
:1029F00001F024FC22462146092001F0E7FB0920D2
:102A000001F01CFC0DB0F0BD00380240000C02408B
:102A1000000402400008024008B50B480B4B03605D
:102A20000B4B436000238360C3604FF4804202611C
:102A300043618361C361036202F058F900B908BDC4
:102A400000F040F8FBE700BFA40B0020005400405A
:102A5000A086010030B589B0002303930493059349
:102A6000069307930268144B9A4201D009B030BD17
:102A700000250195114C236B43F002032363236B64
:102A800003F002030193019BC023039312230493D9
:102A9000032306930423079303A9094801F0F8FDD3
:102AA0000295236C43F400132364236C03F4001396
:102AB0000293029BDAE700BF005400400038024056
:102AC0000004024072B6FEE700B595B03022002146
:102AD00008A804F0F9FD00230393049305930693DB
:102AE000079301931E4A116C41F080511164126CDE
:102AF00002F080520192019A02931A4A116841F43D
:102B000080411160126802F480420292029A02220D
:102B1000089201210B9110210C910E920F93082322
:102B200010934823119312920423139308A802F0E0
:102B3000EBFB80B90F23039302210491002305933B
:102B40004FF480520692079303A802F02BFE20B99F
:102B500015B05DF804FBFFF7B5FFFFF7B3FF00BF4B
:102B6000003802400070004008B501F031F8FFF76E
:102B7000ABFFFFF7C5FEFFF799FDFFF79FFEFFF7DD
:102B80004BFF00F02BF9FFF7C7FD00F0B7F800F09E
:102B90005DF900F0EBF800F0DDFF00F0E7FF00204A
:102BA00008BD000082B0002100910B4B5A6C42F42A
:102BB00080425A645A6C02F480420092009A019159
:102BC0001A6C42F080521A641B6C03F0805301931C
:102BD000019B02B0704700BF00380240FEE7FEE7ED
:102BE000FEE7FEE7FEE770477047704708B501F063
:102BF00009F808BD08B5042001F04AFE08BD08B573
:102C0000082001F045FE08BD08B5024802F0DAFFD1
:102C100008BD00BF440C002008B5024802F0D2FFF6
:102C200008BD00BFD40C002008B5024801F042FCEA
:102C300008BD00BFE40A002008B5024801F03AFCD4
:102C400008BD00BF440B00200120704708B504F008
:102C500011FD162303604FF0FF3008BD08B54FF09B
:102C6000FF31FFF7F3FFFEE770B50C46164600256F
:102C700006E0AFF30080214601F8010B01350C4658
:102C8000B542F6DB304670BD70B50C4616460025E1
:102C900004E014F8010BAFF300800135B542F8DB16
:102CA000304670BD08B503460B4A126842B10A4A65
:102CB000106803446A46934206D8074A136008BD69
:102CC000054A06491160F2E704F0D4FC0C230360C6
:102CD0004FF0FF30F3E700BFF80B00200812002090
:102CE0004FF0FF3070474FF400534B6000207047A7
:102CF00001207047002070477047000000B58DB07C
:102D00002422002103A804F0DFFC00230193029396
:102D10001448154A02600122426083604FF6FF7139
:102D2000C160036143618361039205920F2307939E
:102D30000221089109920B9303A903F0BDF850B941
:102D400000230193029301A9064803F003FC28B96C
:102D50000DB05DF804FBFFF7B5FEF1E7FFF7B2FE3B
:102D6000F6E700BFFC0B00200000014000B587B073
:102D70000023029303930493059300930193164851
:102D80004FF08042026041F61F424260836042F28F
:102D90000F72C2600361836103F036F890B94FF49B
:102DA0008053029302A90C4803F08EF968B90023FE
:102DB000009301936946084803F0CCFB40B907B083
:102DC0005DF804FBFFF77EFEE9E7FFF77BFEEEE729
:102DD000FFF778FEF3E700BF440C002000B587B092
:102DE00000230293039304930593009301931548E2
:102DF000154A02604722426083604FF0FF32C26092
:102E00000361836103F000F890B94FF4805302939B
:102E100002A90C4803F058F968B900230093019304
:102E20006946084803F096FB40B907B05DF804FB1B
:102E3000FFF748FEE9E7FFF745FEEEE7FFF742FE42
:102E4000F3E700BF8C0C0020000C004000B58BB0F5
:102E50000023069307930893099304930593009323
:102E60000193029303932648264A02604722426058
:102E700083604FF6FF72C26003614361836102F0B9
:102E8000C3FF50BB4FF48053069306A91C4803F0C0
:102E90001BF928BB1A4802F0E3FF20BB0023049370
:102EA000059304A9164803F055FBF8B900220092D7
:102EB00001230193029203926946114803F096F8A8
:102EC000B8B9022300930193042269460C4803F029
:102ED0008DF888B90BB05DF804FBFFF7F3FDD1E77F
:102EE000FFF7F0FDD6E7FFF7EDFDD7E7FFF7EAFDC7
:102EF000DCE7FFF7E7FDE4E7FFF7E4FDEAE700BF03
:102F0000D40C00200004014000B589B000230393D5
:102F100004930593069307930268144B9A4202D0D8
:102F200009B05DF804FB0021019103F59C335A6C54
:102F300042F001025A645A6C02F001020192019AB5
:102F400002911A6B42F010021A631B6B03F010031C
:102F50000293029B4FF42063039302230493012303
:102F6000079303A9024801F093FBD9E70000014051
:102F70000010024010B58AB0002305930693079312
:102F8000089309930368B3F1804F07D0294A93420D
:102F900019D0294A934223D00AB010BD00210191D3
:102FA00003F50E331A6C42F001021A641B6C03F035
:102FB00001030193019B0A461C2001F007F91C2024
:102FC00001F03CF9E8E7002302931C4B1A6C42F035
:102FD00008021A641B6C03F008030293029BDBE7F0
:102FE00000240394154B5A6C42F002025A645A6C46
:102FF00002F002020392039A04941A6B42F0040254
:103000001A631B6B03F004030493049B4023059392
:10301000022306930323099305A9094801F038FB0D
:10302000224621462E2001F0D1F82E2001F006F98B
:10303000B2E700BF000C004000040140003802402D
:103040000008024008B500224FF48041014801F019
:1030500018FC08BD000C024008B501224FF4804165
:10306000014801F00EFC08BD000C024000B587B01D
:103070000123019300220292039301A9024801F067
:1030800007FB07B05DF804FB0000024000B587B005
:103090000123019302930223049301A9024801F042
:1030A000F7FA07B05DF804FB0000024038B50025D0
:1030B0002C460DE00121134801F0DCFB0128F9D07A
:1030C000C4F10702012393401D43EDB20134E4B281
:1030D000072C15D801210B4801F0CCFB0028F9D0B2
:1030E000282000F01BFD0121064801F0C3FB012848
:1030F000E0D0C4F107020123934025EA0305E5E788
:10310000284638BD0000024038B50446FFF7BEFF30
:10311000254D00220121284601F0B3FB122000F0CA
:1031200011FD01221146284601F0ABFB1E2000F0E4
:10313000F5FCFFF79BFF0121284601F09BFB0546AC
:1031400078BB0121184801F095FB0028F9D0012136
:10315000154801F08FFB0128F9D0FFF7A7FF207079
:10316000FFF7A4FF6070FFF7A1FFA070FFF79EFFBD
:10317000E070FFF79BFF2071FFF788FF01221146E7
:10318000094801F07EFB2279237861780B44A1780D
:103190000B44E1780B449A4201D0284638BD012502
:1031A000FBE70025F9E700BF0000024000F00F0335
:1031B000000900EB800003EB4000C0B27047000044
:1031C000074BA3FB0023DA08134602EB8202A0EBB5
:1031D00042021801C0B250FA82F0C0B2704700BF7C
:1031E000CDCCCCCC30B585B08DF80C000A4C4FF46A
:1031F0007A750095012303AAD021204601F054FEE0
:103200000095012303AAD121204601F009FF9DF872
:103210000C0005B030BD00BFA40B002000B585B088
:103220008DF80C008DF80D104FF47A730093022383
:1032300003AAD021024801F037FE05B05DF804FB77
:10324000A40B002070B50E4615461C46FFF7B8FFCC
:1032500001460620FFF7E2FF3046FFF7B1FF0146C7
:103260000520FFF7DBFF2846FFF7AAFF01460420F1
:10327000FFF7D4FF9DF81800FFF7A2FF01460320D7
:10328000FFF7CCFF2046FFF79BFF01460220FFF728
:10329000C5FF9DF81000FFF793FF01460120FFF7DF
:1032A000BDFF9DF81400FFF78BFF01460020FFF7DC
:1032B000B5FF70BD38B505460620FFF793FFFFF751
:1032C00075FF174C60710520FFF78CFFFFF76EFF4D
:1032D00020710420FFF786FFFFF768FFE0700220EF
:1032E000FFF780FFFFF762FFA0700120FFF77AFF72
:1032F000FFF75CFF60700020FFF774FFFFF756FFD9
:1033000020700320FFF76EFFFFF750FFA0712068C9
:103310002860A288A379AA80AB71284638BD00BF77
:103320001C0D002008B53C21014803F0ADF808BD94
:10333000FC0B0020064B1A6841F26F739A4205DDC0
:103340000023034A1360034A12685362704700BFA8
:10335000240D0020FC0B002010B5064B1B685B6A97
:10336000054C2360FFF7E6FF2368044A10681360EA
:10337000181A10BDFC0B0020240D0020480D002061
:10338000044B1868012801D00020704700221A6001
:10339000704700BF400D0020094B1B68B3F5966FC6
:1033A00003DB074B4FF496621A60054B1B68B3F5BD
:1033B000487F03DC024B4FF448721A60704700BF2D
:1033C0000400002008B505220449054800F006FD68
:1033D00005220449044800F001FD08BD280D002025
:1033E000540A0020340D00209C0A0020044B186869
:1033F000012801D00020704700221A60704700BFEA
:10340000440D002008B5FFF7C7FF0A4B1A8840F6A5
:10341000B7339A420CD9084A136814331360B3F5D2
:10342000966F01D0002004E03C3B1360012000E0D7
:10343000002008BD340D00200400002008B5FFF76F
:10344000ABFF0A4B1B88B3F57A7F0CD8084A136888
:10345000143B1360B3F5487F01D0002004E03C33F7
:103460001360012000E0002008BD00BF340D0020E3
:1034700004000020042802D0082804D07047044B20
:1034800001221A60F8E7034B01221A60F6E700BF39
:10349000440D0020400D0020214B1B78632B02D9E6
:1034A0001F4B00221A701F4B1B780C2B02D91D4B8F
:1034B00001221A701B4B1B7813B91A4B0C221A707D
:1034C000194B1B78072B02D9174B01221A70164B88
:1034D0001B7813B9144B07221A70144B1B781F2B3F
:1034E00002D9124B01221A70104B1B7813B90F4BE3
:1034F0001F221A700E4B1B78172B02D90C4B00227F
:103500001A700C4B1B783B2B02D90A4B00221A7005
:10351000094B1B783B2B02D9074B00221A707047CE
:103520000C0000200A0000200B00002008000020F2
:10353000090000205C0D00205D0D0020F0B58BB06F
:1035400000252C467DE0714B1B780293704B1B7855
:103550000193704B1B7800936F4B1B786F4A127866
:103560006F4909786F480078FFF76CFE0BB0F0BD2B
:10357000012777E00625FFF7EFFE2C18E1006A4BE4
:10358000009308231A4601F0F801302003F0F4FEFE
:103590003D46012D6CD0634B1A78644905A804F0B0
:1035A0002BF9062305AA0021084603F05FFF5C4BB8
:1035B0001A785F4905A804F01FF9062305AA082117
:1035C000002003F053FF554B1A785A4905A804F020
:1035D00013F9062305AA1021002003F047FF4E4BE4
:1035E0001A78554905A804F007F9062305AA1821F9
:1035F000002003F03BFF474B1A78504905A804F020
:10360000FBF8062305AA2021002003F02FFF404BE2
:103610001A784B4905A804F0EFF8062305AA2821DB
:10362000002003F023FF394B1A78464905A804F01F
:10363000E3F8062305AA3021002003F017FF03F06A
:1036400001FEFFF7D3FE064600287FF47CAF03F0AF
:103650000DFEFFF721FF002D9BD1FFF791FE002803
:1036600086D12F46002C86DB062C83DC254682E79C
:10367000FFF786FE00B13546E1002B4B009308238F
:103680001A4601F0F801302003F076FE9CB1012CBF
:1036900018D0022C1DD0032C22D0042C27D0052CAE
:1036A0002CD0062C7FF477AFFFF756FE174A13781D
:1036B000034413706FE7FFF74FFE1A4A1378034471
:1036C0001370E4E7FFF748FE154A137803441370BC
:1036D000DFE7FFF741FE114A137803441370DAE77E
:1036E000FFF73AFE0C4A137803441370D5E7FFF74F
:1036F00033FE084A137803441370D0E7FFF72CFE1B
:10370000034A137803441370CBE700BF0B0000207B
:103710005D0D00205C0D0020090000200800002045
:103720000A0000200C00002028D7000898D50008C7
:10373000A0D50008ACD50008B4D50008BCD5000859
:10374000C4D50008CCD5000800B587B022E003F04E
:103750008DFD144A0021102003F0A0FE00F0F4F8C3
:10376000FCF7B2FE02460B460F4901A804F044F8EC
:10377000082301AA1021002003F078FE0B4A202123
:10378000002003F08BFE0A4A3021002003F086FE61
:1037900003F058FDFFF72AFE0028D8D007B05DF8E7
:1037A00004FB00BFD4D50008DCD50008E4D5000830
:1037B000F8D5000810B586B0224B00221A6031E01F
:1037C000204B1B680BB906B010BD1F4802F080F9F2
:1037D000F9E7FFF7C1FD1B4C23680344236003F0A6
:1037E00045FD1A4A0021084603F058FE2268184990
:1037F00001A804F001F8082301AA1021002003F019
:1038000035FE144A1021202003F048FE124A2021E0
:10381000002003F043FE114A3021002003F03EFE59
:1038200003F010FDFFF7E2FD0028CCD1FFF7A8FD63
:103830000028C5D1034B1B68002BCADA014B0022BC
:103840001A60C6E7580D0020440C00200CD6000872
:10385000C8D5000820D6000828D600083CD60008A5
:1038600010B582B026E003F001FD154C0094102342
:103870001A460021084603F07FFD124A002110205D
:1038800003F00CFE009410231A461946002003F0A2
:1038900073FD0D4A1021084603F000FE0B4A20215B
:1038A000102003F0FBFD0A4A3021002003F0F6FD52
:1038B00003F0C8FCFFF79AFD0028D4D002B010BD79
:1038C00008D7000850D6000860D6000870D6000857
:1038D00080D6000808B5114B834200D008BD1048BF
:1038E000036841685A1C41F10001026041600D4BC0
:1038F0001B68C3EB0313980043F34073994208BF5E
:103900008242EBD1054802F027F9054B0020002147
:10391000C3E90001FFF796FBE0E700BF440C00207D
:10392000500D0020580D002010B5064C204602F026
:10393000CFF80021204602F055FC0421204602F079
:10394000E9FC10BDD40C002010B50D4C01224FF441
:103950000041204600F095FF2D2000F0DFF8002206
:103960004FF40041204600F08CFF064B1B680022FC
:103970005A620A2000F058F9034B186810BD00BFC6
:10398000000C0240D40C0020600D0020000000005C
:1039900038B5134B834200D038BD1D460021184670
:1039A00002F0F4F80F4C20600421284602F0EEF8F3
:1039B0000D4B18602368C01AFCF774FD06A3D3E909
:1039C0000023FCF7D9FD0022084BFCF7D5FDFDF7DD
:1039D00095F8074B1860DFE79CC420B07268A13FE0
:1039E000D40C0020680D0020640D00200000E03F92
:1039F000600D002008B503F0CAFB08BD10B59EB0ED
:103A000064E003F033FC374C2046FFF77DFBA278DF
:103A1000354919A803F0F0FE2278344914A803F0C0
:103A2000EBFE334B009310231A460021084603F0A7
:103A3000A3FC082319AA0021102003F017FD2D4A2A
:103A40000021202003F02AFD2B4B009310231A465F
:103A50001946002003F090FC082314AA1021084600
:103A600003F004FD254C02A8FFF724FC0298206017
:103A7000BDF80C209DF80E30A280A371237800932E
:103A80006378A2781E490CA803F0B6FEE378A27909
:103A900001920093237962791A4904A803F0ACFEDD
:103AA000194B009310231A462021002003F064FCD8
:103AB00008230CAA2021102003F0D8FC082304AA14
:103AC0003021002003F0D2FC03F0BCFBFFF758FCD0
:103AD00030B9FFF78BFC002893D0FFF7BDFA90E7D1
:103AE0001EB010BD6C0D0020C8D5000894D600088B
:103AF000F0E700089CD60008E8D60008740D002006
:103B0000A0D60008ACD6000810E8000808B50248A6
:103B100003F070FA08BD00BF7000002010B5044625
:103B20000748036800225A6201F080FF044B1B68BB
:103B30005B6AA342FAD1024801F0B6FF10BD00BF94
:103B40008C0C002008B54FF47A7303FB00F0FFF7EC
:103B5000E5FF08BD08B50448FFF74CFFFFF7E2FB9F
:103B6000FFF7E2FE08BD00BF7C0D002010B5044C3D
:103B70002046FFF743FF2046FFF7C8FFF7E700BFE7
:103B80007C0D002010B504460E4B18784FF47A7364
:103B9000B3FBF0F30C4A1068B0FBF3F000F05CFBF1
:103BA00068B90F2C01D901200AE0002221464FF00C
:103BB000FF3000F00BFB054B1C60002000E00120F3
:103BC00010BD00BF840000200000002088000020FD
:103BD00008B50B4B1A6842F400721A601A6842F476
:103BE00080621A601A6842F480721A60032000F042
:103BF000DBFA0F20FFF7C6FFFEF7D4FF002008BD59
:103C0000003C0240034A1168034B1B780B441360CD
:103C1000704700BF800D002084000020014B186811
:103C2000704700BF800D002038B50446FFF7F6FF4F
:103C30000546B4F1FF3F02D0044B1B781C44FFF74C
:103C4000EDFF401BA042FAD338BD00BF8400002026
:103C50004A4B5A6822F440325A605A6841680A4313
:103C60005A600268536823F4807353600268536893
:103C7000016943EA012353600268536823F04073EB
:103C800053600268536881680B435360026893680D
:103C900023F40063936002689368C1680B439360E8
:103CA000826A374B9A4257D00268936823F0706358
:103CB000936002689368816A0B439360026893681B
:103CC00023F04053936002689368C16A0B4393608A
:103CD0000268936823F00203936002689368017E90
:103CE00043EA4103936090F82030002B3FD00268F4
:103CF000536843F4006353600268536823F46043DD
:103D0000536001684B68426A013A43EA42334B60B0
:103D10000268D36A23F47003D3620168CB6AC26974
:103D2000013A43EA0253CB620268936823F40073BA
:103D300093600268936890F8301043EA41239360DF
:103D40000268936823F48063936002689368416912
:103D500043EA8123936070470268936823F070639D
:103D600093600268936823F040539360B0E7026861
:103D7000536823F400635360CAE700BF0023014087
:103D80000100000F38B310B50446036C43B1236C37
:103D900013F0100F0BD00120002384F83C3010BD2D
:103DA000FEF7F0FC0023636484F83C30EFE7236CFB
:103DB00023F4885323F0020343F0020323642046D4
:103DC000FFF746FF00206064236C23F0030343F0F9
:103DD00001032364E0E701207047000010B582B0C2
:103DE00013460022019290F83C20012A00F0AE8098
:103DF0000446012280F83C200268906810F0010F10
:103E000013D1906840F001009060534A1068534A03
:103E1000A2FB0020800C00EB4000019002E0019822
:103E20000138019001980028F9D12268906810F4B7
:103E3000807F03D0906820F4807090602268906842
:103E400010F0010F77D0206C20F4E06020F001002A
:103E500040F480702064526812F4806F05D0226CA8
:103E600022F4405242F480522264226C12F4805FA9
:103E700036D0626C22F006026264002284F83C2094
:103E8000A26B3748D063A26B36481064A26B3648E9
:103E9000D06422686FF0220010602068426842F00F
:103EA000806242602068826842F48072826020688A
:103EB0000A4600F14C01A06B00F0C6FA2B4B5B6880
:103EC00013F01F0F27D12368294A934211D002F51E
:103ED0008072934207D0274A934214D0002033E0E7
:103EE00000226264C9E702F50072526812F01F0FE7
:103EF000F1D19A6812F0405F2AD19A6842F080426C
:103F00009A60002020E002F58072526812F0100FD3
:103F1000EFD0002018E02368154A934201D000201A
:103F200012E09A6812F0405F14D19A6842F0804221
:103F30009A60002008E0236C43F010032364636C54
:103F400043F001036364002002B010BD0220FBE7D0
:103F50000020F9E70020F7E70000002083DE1B4384
:103F60009F3F00087D3F0008893F00080023014073
:103F700000200140002201407047704708B5806B67
:103F8000FFF7FBFF08BD704708B5806B4023036453
:103F9000436C43F004034364FFF7F5FF08BD08B525
:103FA0000346806B026C12F0500F25D1036C43F472
:103FB0000073036403689A6812F0405F19D1027EAF
:103FC000BAB9DA6A12F4700F03D09A6812F4806FEB
:103FD0000FD15A6822F020025A60036C23F48073D8
:103FE0000364036C13F4805F03D1036C43F001039B
:103FF0000364FFF7C1FF08BD026C12F0100F04D17B
:10400000826BD26C18469047F5E7FFF7BCFFF2E7EA
:1040100030B482B00023019390F83C30012B00F0C3
:10402000BB80012380F83C300B68092B41D9046820
:10403000E2689BB203EB43031E3B4FF0070C0CFA04
:1040400003F322EA0303E3600468E2680B8803EBEE
:1040500043031E3B8D6805FA03F31343E3604B688B
:10406000062B3DD80468626B03EB8303053B4FF0DE
:104070001F0C0CFA03F322EA030363630468626B08
:104080004B6803EB8303053BB1F800C00CFA03F364
:10409000134363630268414B9A4251D002683F4B1D
:1040A0009A4256D0002380F83C30184602B030BC0B
:1040B0007047046822699BB203EB43034FF0070C7F
:1040C0000CFA03F322EA03032361046822690B88D4
:1040D00003EB43038D6805FA03F313432361BEE743
:1040E0000C2B16D805682A6B03EB8303233B1F2494
:1040F00004FA03F322EA03032B6305682A6B4B6877
:1041000003EB8303233B0C8804FA03F313432B6371
:10411000C0E70568EA6A03EB8303413B1F2404FA06
:1041200003F322EA0303EB620568EA6A4B6803EBD8
:104130008303413B0C8804FA03F31343EB62A9E7C2
:104140000B68122BAAD1164A536843F480035360BC
:10415000A4E70B68103B012BA4D8114A536843F421
:10416000000353600B68102B9CD10E4B1B6802F1AF
:10417000467202F52E3202F28332A2FB03239B0C1D
:1041800003EB83035B00019302E0019B013B01937E
:10419000019B002BF9D185E7022087E70020014031
:1041A0000023014000000020074AD36823F4E063A5
:1041B0001B041B0C000200F4E060034343F0BF63E8
:1041C00043F40033D360704700ED00E000B5194BB5
:1041D000DB68C3F30223C3F1070CBCF1040F28BF53
:1041E0004FF0040C03F1040EBEF1060F18D9033B87
:1041F0004FF0FF3E0EFA0CFC21EA0C0199400EFA3A
:1042000003F322EA0303194300280BDB0901C9B2B7
:1042100000F1604000F5614080F800135DF804FB98
:104220000023E5E700F00F000901C9B2024B195461
:10423000F4E700BF00ED00E014ED00E0002807DB2C
:1042400000F01F02400901239340024A42F8203047
:10425000704700BF00E100E00138B0F1807F0BD271
:104260004FF0E0235861054AF02182F82310002026
:10427000986107221A6170470120704700ED00E045
:1042800030B405682C6824F480242C6004686360D2
:104290008368402B05D0036899600368DA6030BCFE
:1042A000704703689A600368D960F8E710B4036840
:1042B000D9B210390B4AA2FB014212090A4CA25C86
:1042C000C2655F2908D923F47F7323F00303043305
:1042D0008365806D10BC704723F47F7323F0030364
:1042E0008365F6E7ABAAAAAAE0D60008836A8269CA
:1042F00092B9012B0AD0022B02D00BB100207047DB
:10430000C36A13F0807F28D100207047C36AB3F1DD
:10431000C07F24D000207047B2F5005F09D0022B87
:1043200025D9032B25D1C36A13F0807F23D1002028
:104330007047032B03D8DFE803F01404140A0020AD
:104340007047C36A13F0807F0DD100207047C36AA5
:10435000B3F1C07F09D000207047012070470120D1
:1043600070470120704701207047012070470120ED
:1043700070470020704701207047000070B5044668
:10438000FFF74CFC002C5BD00546022384F8353047
:10439000002384F834302268136823F0010313608B
:1043A00023681A6812F0010F0AD0FFF737FC431B8D
:1043B000052BF5D920236365032084F8350070BDF3
:1043C0001A68204810406168A2680A43E1680A43FD
:1043D00021690A4361690A43A1690A43E1690A4301
:1043E000216A0A430243616A04291ED01A602668C2
:1043F000756925F00705636A1D43042B07D1A36A7D
:104400001D43E36A1BB12046FFF770FF90B9756149
:104410002046FFF74BFFE26D3F239340836000206F
:104420006065012384F83530C9E7E16A206B0143F8
:104430000A43DBE740236365012084F83500BEE7CB
:104440000120BCE73F8010F038B50446856D90F838
:10445000340001282BD0012084F8340094F8350072
:10446000C0B2012804D0002384F83430022038BDC3
:10447000022084F83500002060652046FFF700FF29
:10448000E26D3F239340AB602268136843F016034C
:104490001360236C23B12268136843F00803136090
:1044A0002268136843F0010313600020DFE7022055
:1044B000DDE70000F0B583B0044600230193724BA2
:1044C0001D68724BA3FB0535AD0A876D3E68C26D52
:1044D00008239340334210D003681A6812F0040F87
:1044E0000BD01A6822F004021A60C26D08239340B0
:1044F000BB60436D43F001034365E26D01239340CC
:10450000334209D02268526912F0800F04D0BB6098
:10451000636D43F002036365E26D0423934033420D
:1045200009D02268126812F0020F04D0BB60636DDC
:1045300043F004036365E26D10239340334224D0BB
:104540002268126812F0080F1FD0BB6023681A6837
:1045500012F4802F0DD01B6813F4002F04D1236CAC
:104560009BB12046984710E0A36C73B12046984752
:104570000BE01A6812F4807F03D11A6822F0080257
:104580001A60236C0BB120469847E26D20239340BC
:10459000334255D02268126812F0100F50D0BB6021
:1045A00094F83530DBB2052B0ED023681A6812F46C
:1045B000802F33D01B6813F4002F2AD1636C002B9B
:1045C0003ED0204698473BE02268136823F016034C
:1045D00013602268536923F080035361236CA3B1F5
:1045E0002268136823F008031360E26D3F239340B1
:1045F000BB60012384F83530002384F83430236D08
:10460000002B3FD0204698473CE0A36C002BE7D11D
:10461000EBE7E36BA3B12046984711E01A6812F468
:10462000807F09D11A6822F010021A60012384F8F1
:104630003530002384F83430E36B0BB120469847C3
:10464000636DFBB1636D13F0010F17D0052384F880
:1046500035302268136823F001031360019B013396
:104660000193AB4204D823681B6813F0010FF5D106
:10467000012384F83530002384F83430E36C0BB127
:104680002046984703B0F0BD00000020B5814E1BC6
:1046900000230F2B00F2E48070B582B060E08568E3
:1046A0005E000324B44025EA0405CC68B4402C43E2
:1046B0008460456825EA02054C68C4F300129A40FC
:1046C0002A4342605AE0DC08083450F8246003F0C2
:1046D000070295000F22AA4026EA020E0A69AA40A4
:1046E00042EA0E0240F824205CE0072200E00022AB
:1046F00002FA0EF22A4302345A4D45F824205A4A4F
:1047000094686FEA0C0224EA0C054E6816F4801FC8
:1047100001D04CEA0405544CA560E46802EA0405A3
:104720004E6816F4001F01D04CEA04054E4CE560BB
:10473000646802EA04054E6816F4003F01D04CEAB2
:104740000405494C6560246822404D6815F4803F9B
:1047500001D04CEA0402444C226001330F2B7DD877
:1047600001229A400C6804EA020C32EA0404F4D1F3
:104770004C6804F00304013C012C90D94A6802F013
:104780000302032A09D0C4685D000322AA4024EA78
:1047900002048A68AA402243C2604A6802F0030207
:1047A000022A90D004684FEA430E032202FA0EF266
:1047B00024EA02044A6802F0030202FA0EF22243DB
:1047C00002604A6812F4403FC7D000220192274A93
:1047D000546C44F480445464526C02F4804201925C
:1047E000019A9C08A51C1F4A52F8255003F00302A9
:1047F0004FEA820E0F2202FA0EF225EA02051C4A47
:1048000090423FF474AF02F5806290421AD002F5F4
:104810008062904218D002F58062904216D002F574
:104820008062904214D002F58062904212D002F56C
:104830008062904210D002F5806290423FF455AF02
:10484000082255E7012253E7022251E703224FE7EE
:1048500004224DE705224BE7062249E702B070BD6E
:10486000704700BF00380140003C01400038024062
:10487000000002400369194201D001207047002066
:1048800070470AB181617047090481617047000077
:1048900008B5054B5B69034200D108BD024B586166
:1048A000FEF7E8FDF9E700BF003C014003685A69E4
:1048B00012F4806F01D1002070476FF480625A615A
:1048C00000230363202280F83D2080F83E30026CF4
:1048D00042F00402026480F83C30012070472DE968
:1048E000F04107460D4690461E4624E0FFF796F934
:1048F000069BC01AB04200D8EEB900233B632022C9
:1049000087F83D2087F83E303A6C42F020023A6446
:1049100087F83C3001201EE03B689C6925EA040CC6
:104920001FFA8CFCBCFA8CFC4FEA5C1CE04511D1F0
:10493000B6F1FF3FDAD1C5F30743012BECD13B6859
:104940005B6925EA030C1FFA8CFCBCFA8CFC4FEA6D
:104950005C1CEBE70020BDE8F0812DE9F041054645
:104960000E46174698463DE01A6842F400721A60F7
:104970002B686FF480625A6100232B63202285F834
:104980003D2085F83E302A6C42F004022A6485F806
:104990003C30012034E0FFF741F9A0EB0800B842B9
:1049A00000D8FFB900232B63202285F83D2085F82D
:1049B0003E302A6C42F020022A6485F83C30012007
:1049C0001EE02B689C6926EA0404A4B2003C18BFD0
:1049D0000124A4B12B685A6912F4806FC4D1B7F1D5
:1049E000FF3FD8D1C6F30743012BEAD12B685C699E
:1049F00026EA0404A4B2003C18BF0124E9E7002021
:104A0000BDE8F081F0B583B004460D4616461F465A
:104A1000C36A082B0DD0012B0BD013F5803F08D0B3
:104A2000036B122B0AD10268136843F4807313607E
:104A300004E02268136843F48073136000973346E0
:104A400000224FF001112046FFF749FF80B923698A
:104A5000B3F5804F16D1236805F0FE051D613B4676
:104A6000324613492046FFF778FFF8B903B0F0BD8E
:104A700023681B6813F4807F02D04FF40073236413
:104A80000320F3E7EB11226803F0060343F0F00381
:104A900013613B46324607492046FFF75EFF18B9CF
:104AA0002368EDB21D61DAE70120DFE70120DDE7D1
:104AB00002000100080001002DE9F04184B0044625
:104AC0000D4616461F46C26A01680B6843F48063B0
:104AD0000B60082A0DD0012A0BD012F5803F08D0B8
:104AE000036B112B0AD10268136843F480731360BF
:104AF00004E02268136843F4807313600097334620
:104B000000224FF001112046FFF7E9FE98B9236912
:104B1000B3F5804F19D1236845F00105EDB21D6151
:104B20003B4632462A492046FFF717FF00284CD162
:104B300004B0BDE8F08123681B6813F4807F02D0C5
:104B40004FF4007323640320F2E74FEAE51808F0FE
:104B50000608236848F0F0021A613B4632461D49B8
:104B60002046FFF7FAFE08B10120E1E72368EDB225
:104B70001D613B46324616492046FFF7EEFE08B15E
:104B80000120D5E7002203922368596903919969AE
:104B900003910399196841F48071196000973346B5
:104BA0004FF001112046FFF79AFE20B9226848F025
:104BB000F1031361B4E723681B6813F4807F02D00C
:104BC0004FF4007323640320B2E70120B0E700BF75
:104BD000020001000800010070B504460D461646AB
:104BE00023685B6913F0800F1CD12046FFF75EFE3F
:104BF000D0B9B5F1FF3FF3D0FFF710F8801BA84202
:104C000001D8002DECD100232363202284F83D201D
:104C100084F83E30226C42F02002226484F83C305A
:104C2000012000E0002070BD0120FCE770B50446C3
:104C30000D46164623685B6913F0040F1CD120460D
:104C4000FFF734FED0B9B5F1FF3FF3D0FEF7E6FF32
:104C5000801BA84201D8002DECD100232363202221
:104C600084F83D2084F83E30226C42F02002226419
:104C700084F83C30012000E0002070BD0120FCE7FA
:104C800070B505460C4616462B68596911F0400F61
:104C900029D1596911F0100F15D1FEF7BFFF801B04
:104CA000A04201D8002CEFD100232B63202285F8ED
:104CB0003D2085F83E302A6C42F020022A6485F8B7
:104CC0003C30012070BD6FF010025A6100232B634D
:104CD000202285F83D2085F83E302A6C2A6485F82C
:104CE0003C300120EEE70020ECE70000002800F057
:104CF000CC8070B5044690F83D30002B77D024234B
:104D000084F83D302268136823F0010313602268A1
:104D1000136843F4004313602268136823F40043CC
:104D2000136000F0F5FD62685A4B9A4264D85A4B02
:104D300098428CBF00230123002B40F0A8805749E4
:104D4000A1FB00318B0C25686A6822F03F0242EA21
:104D500091426A6021680A6A22F03F0266684D4DFE
:104D6000AE424FD8013313430B622168CA6922F463
:104D70004F4222F0FF026668464B9E424CD8431ECB
:104D80007600B3FBF6F3013340F6FC70034278D0B3
:104D9000C3F30B031343CB6121680B6823F0C003FB
:104DA000E269206A024313430B6021688B6823F495
:104DB000034323F0FF032269E068024313438B603F
:104DC0002168CB6823F0FF036269A06902431343A3
:104DD000CB602268136843F0010313600020206455
:104DE000202384F83D30206384F83E0070BD80F8B5
:104DF0003C30FDF72FFE82E7294B98428CBF002301
:104E0000012399E74FF4967505FB03F3254DA5FBA8
:104E100003539B090133A6E7A368BBB9451E06EB04
:104E2000460CB5FBFCF50135C5F30B05B5FA85F568
:104E30006D0945BBC3B9013806EB4603B0FBF3F37C
:104E40000133C3F30B0343F40043A3E7451E06EB12
:104E5000860C0CEB8C0CB5FBFCF50135C5F30B0592
:104E6000B5FA85F56D09E4E7013806EB860303EB37
:104E70008303B0FBF3F30133C3F30B0343F4404369
:104E800088E7042386E7012384E701207047012097
:104E9000ACE700BFA08601007F841E0083DE1B43B9
:104EA000FF083D00D34D62102DE9F04385B0044664
:104EB0000F46914698460C9EFEF7B0FE054694F8C4
:104EC0003D00C0B2202804D00227384605B0BDE816
:104ED000F0830095192301224F492046FFF7FFFC7C
:104EE000002840F0928094F83C30012B00F08F8035
:104EF000012384F83C3023681A6812F0010F03D1B3
:104F00001A6842F001021A602268136823F40063F1
:104F10001360212384F83D30102384F83E300023B1
:104F20002364C4F82490A4F82A80638D23853B4B26
:104F3000E3622B46324639462046FFF763FD0746BB
:104F4000002866D10023039323685A6903929B6962
:104F50000393039B11E0236C042B01D00127B4E7DA
:104F60002268136843F400731360F7E72A4631465A
:104F70002046FFF75BFE00282ED1238D002B36D074
:104F80002A4631462046FFF727FE0028E3D1626A11
:104F9000236812781A61606A431C6362618D89B26A
:104FA000013989B26185238D013B9BB2238522683B
:104FB000516911F0040FD9D0002BD7D04378136179
:104FC000636A01336362638D9BB2013B9BB263856D
:104FD000238D013B2385C9E7236C042B01D00127D6
:104FE00073E72268136843F400731360F7E72268DD
:104FF000136843F400731360202384F83D300023CA
:1050000084F83E3084F83C305FE702275DE70227F2
:105010005BE7012759E700BF020010000000FFFF17
:105020002DE9F04387B004460F46914698460E9E00
:10503000FEF7F4FD054694F83D00C0B2202804D0E8
:105040000227384607B0BDE8F083009519230122F6
:1050500089492046FFF743FC002840F0458194F839
:105060003C30012B00F04281012384F83C3023685E
:105070001A6812F0010F03D11A6842F001021A6097
:105080002268136823F400631360222384F83D3000
:10509000102384F83E3000232364C4F82490A4F83D
:1050A0002A80638D2385754BE3622B463246394651
:1050B0002046FFF701FD0746002840F01981238DA7
:1050C0005BB9029323685A6902929A690292029A22
:1050D0001A6842F400721A607AE0012B0FD0022B9A
:1050E0001FD02268136843F4806313600023059384
:1050F00023685A6905929B690593059B68E02268BD
:10510000136823F4806313600023039323685A69B0
:1051100003929A690392039A1A6842F400721A6021
:1051200056E02268136823F48063136022681368D2
:1051300043F4006313600023049323685A690492C4
:105140009B690493049B43E02A4631462046FFF7BF
:1051500097FD002840F0CE8023681A69636A1A70B0
:10516000636A01336362238D013B2385638D9BB2A8
:10517000013B9BB263852BE00095334600224049FA
:105180002046FFF7ACFB002840F0B6802268136889
:1051900043F40073136023681A69636A1A70626AC1
:1051A000531C6362238D013B2385638D9BB2013BBE
:1051B0009BB2638523681B695370636A0133636222
:1051C000238D013B2385638D9BB2013B9BB263859D
:1051D000218D00297FD0032954D80129B4D0022978
:1051E000CAD000953346002225492046FFF777FBB9
:1051F000002840F083802268136823F480631360E2
:1052000023681A69636A1A70636A01336362238DC3
:10521000013B2385618D89B2013989B26185009591
:105220003346002216492046FFF759FB002867D174
:105230002268136843F40073136023681A69636A71
:105240001A70626A531C6362238D013B2385638D50
:105250009BB2013B9BB2638523681B695370636AF1
:1052600001336362238D013B2385638D9BB2013B38
:105270009BB26385ACE700BF020010000000FFFF97
:10528000040001002A4631462046FFF7F9FC0028B9
:1052900038D123681A69636A1A70626A531C6362A0
:1052A000238D013B2385638D9BB2013B9BB26385BC
:1052B0002368596911F0040F8AD01B695370636A1F
:1052C00001336362238D013B2385638D9BB2013BD8
:1052D0009BB263857CE7202384F83D30002384F86B
:1052E0003E3084F83C30ACE60227AAE60227A8E666
:1052F0000127A6E60127A4E60127A2E60127A0E6EA
:1053000001279EE601279CE6002800F0E08170B5A9
:1053100082B00446036813F0010F3BD09F4B9B689B
:1053200003F00C03042B2CD09C4B9B6803F00C0364
:10533000082B21D06368B3F5803F4FD0B3F5A02F81
:1053400052D0964B1A6822F480321A601A6822F4FE
:1053500080221A606368002B50D0FEF75FFC054680
:105360008E4B1B6813F4003F14D1FEF757FC401B13
:105370006428F5D90320B1E1884B5B6813F4800FF2
:10538000D8D0864B1B6813F4003F03D06368002B12
:1053900000F09F81236813F0020F54D07F4B9B686D
:1053A00013F00C0F3ED07D4B9B6803F00C03082BD1
:1053B00033D0E368002B68D0794B01221A60FEF7E6
:1053C0002DFC0546754B1B6813F0020F54D1FEF7F8
:1053D00025FC401B0228F5D903207FE16F4A1368A2
:1053E00043F480331360B5E76C4B1A6842F48022B3
:1053F0001A601A6842F480321A60ABE7FEF70EFCBE
:105400000546664B1B6813F4003FC3D0FEF706FC4D
:10541000401B6428F5D9032060E1604B5B6813F4FE
:10542000800FC6D15D4B1B6813F0020F03D0E368F9
:10543000012B40F05081594A136823F0F803216989
:1054400043EAC1031360236813F0080F42D0636975
:105450006BB3534B0122C3F8802EFEF7DFFB0546EA
:105460004E4B5B6F13F0020F34D1FEF7D7FB401B9E
:105470000228F5D9032031E1484A136823F0F803E4
:10548000216943EAC1031360DDE7454B00221A603E
:10549000FEF7C4FB0546414B1B6813F0020FD2D048
:1054A000FEF7BCFB401B0228F5D9032016E13C4B5C
:1054B0000022C3F8802EFEF7B1FB0546374B5B6F29
:1054C00013F0020F06D0FEF7A9FB401B0228F5D906
:1054D000032003E1236813F0040F77D02F4B1B6CDC
:1054E00013F0805F33D1002301932C4B1A6C42F0F0
:1054F00080521A641B6C03F080530193019B0125B9
:10550000284B1B6813F4807F23D0A368012B34D071
:10551000052B38D0214B1A6F22F001021A671A6F3F
:1055200022F004021A67A368002B3DD0FEF776FB39
:1055300006461A4B1B6F13F0020F46D1FEF76EFBA7
:10554000801B41F288339842F3D90320C6E000253E
:10555000D6E7144A136843F480731360FEF75EFBCA
:105560000646104B1B6813F4807FCED1FEF756FB26
:10557000801B0228F5D90320B0E0084A136F43F0DE
:1055800001031367CFE7054B1A6F42F004021A6755
:105590001A6F42F001021A67C5E700BF00380240E7
:1055A0000000474200700040FEF738FB0646524BB1
:1055B0001B6F13F0020F08D0FEF730FB801B41F287
:1055C00088339842F3D9032088E0EDB9A369002B12
:1055D00000F08380484A926802F00C02082A51D0F9
:1055E000022B17D0454B00221A66FEF717FB044624
:1055F000414B1B6813F0007F42D0FEF70FFB001BEE
:105600000228F5D9032069E03B4A136C23F080534C
:105610001364DBE7394B00221A66FEF7FFFA0546F2
:10562000354B1B6813F0007F06D0FEF7F7FA401BDE
:105630000228F5D9032051E0E369226A1343626A24
:1056400043EA8213A26A5208013A43EA0243E26A39
:1056500043EA0263284A5360284B01221A66FEF788
:10566000DDFA0446244B1B6813F0007F06D1FEF7D9
:10567000D5FA001B0228F5D903202FE000202DE0E9
:1056800000202BE0012B2BD01B4B5B6803F4800127
:10569000E269914226D103F03F02216A8A4223D176
:1056A000616A47F6C0721A40B2EB811F1ED103F443
:1056B0004031A26A5208013AB1EB024F18D103F00F
:1056C0007063E26AB3EB026F14D1002006E00120A0
:1056D0007047012002E0012000E0002002B070BD10
:1056E0000120FBE70120F9E70120F7E70120F5E7BA
:1056F0000120F3E70120F1E70038024000004742B3
:1057000008B5254B9B6803F00C03042B3FD0082BF6
:105710003FD1214B5A6802F03F025B6813F4800FBF
:1057200012D01D4B5968C1F388111C480023A1FBFE
:105730000001FBF7DDFB184B5B68C3F3014301334A
:105740005B00B0FBF3F025E0134B5968C1F3881CF4
:105750004FEA4C11B1EB0C006EEB0E0E4FEA8E13BC
:1057600043EA90638101091A63EB0E03DB0043EA0D
:105770005173C90011EB0C0C43F100039902002393
:105780004FEA8C2041EA9C51FBF7B2FBD3E7034878
:1057900000E0034808BD00BF0038024040787D01AA
:1057A0000024F400002800F09B8070B50D460446EC
:1057B0004F4B1B6803F007038B4208D2CBB24C4A15
:1057C0001370136803F007038B4240F08B8023684B
:1057D00013F0020F17D013F0040F04D0454A93685A
:1057E00043F4E0539360236813F0080F04D0414A58
:1057F000936843F4604393603E4A936823F0F00358
:10580000A1680B439360236813F0010F32D06368E3
:10581000012B21D09A1E012A25D9364A126812F08E
:10582000020F61D033498A6822F0030213438B6070
:10583000FEF7F4F906462F4B9B6803F00C036268F1
:10584000B3EB820F16D0FEF7E9F9801B41F28833E3
:105850009842F0D9032042E0264A126812F4003F31
:10586000E0D101203BE0234A126812F0007FD9D139
:10587000012034E01E4B1B6803F00703AB4207D93D
:10588000EAB21B4B1A701B6803F00703AB422DD121
:10589000236813F0040F06D0164A936823F4E053EC
:1058A000E1680B439360236813F0080F07D0114A97
:1058B000936823F46043216943EAC1039360FFF7CF
:1058C0001FFF0C4B9B68C3F303130B4AD35CD840F8
:1058D0000A4B18600A4B1868FEF754F9002070BD97
:1058E000012070470120FAE70120F8E70120F6E7E0
:1058F000003C02400038024080D500080000002033
:1059000088000020014B1868704700BF000000208D
:1059100008B5FFF7F7FF044B9B68C3F38223034AE4
:10592000D35CD84008BD00BF0038024090D50008C5
:1059300010B4036A046A24F001040462846924F048
:10594000F00C4CEA021223F00A030B43826103625B
:1059500010BC704730B4046A24F0100404628469F7
:10596000056A24F4407C4CEA022C2CF4704C1B0396
:105970009BB243EA0C0325F0A005090101F0A00148
:1059800029438361016230BC704710B4046A24F07B
:10599000100404628469036A24F4704C4CEA0232F5
:1059A00023F0A00343EA01138261036210BC704735
:1059B00030B4046A24F480740462C469056A24F073
:1059C000030C4CEA020C2CF0F00C1B01DBB243EA96
:1059D0000C0325F42065090201F420612943C36109
:1059E000016230BC704730B4046A24F4805404620D
:1059F000C469056A24F4407C4CEA022C2CF4704CF7
:105A00001B039BB243EA0C0325F42045090301F470
:105A100020412943C361016230BC7047836823F091
:105A200070030B4343F007038360704790F83D30E9
:105A3000DBB2012B32D1022380F83D300368194AD2
:105A4000934220D0B3F1804F1DD0A2F57C42934207
:105A500019D002F58062934215D002F5806293421C
:105A600011D002F5784293420DD002F57052934264
:105A700009D0A2F59432934205D01A6842F001028F
:105A80001A60002070479A6802F00702062A07D0C1
:105A90001A6842F001021A60002070470120704726
:105AA00000207047000001400368196A41F211129A
:105AB000114208D1196A40F24442114203D11A68D6
:105AC00022F001021A60012380F83D300020704767
:105AD00090F83D30DBB2012B37D1022380F83D3006
:105AE0000268D36843F00103D3600368194A934204
:105AF00020D0B3F1804F1DD0A2F57C42934219D043
:105B000002F58062934215D002F58062934211D073
